{
  "_format": "hh-sol-artifact-1",
  "contractName": "DAppStore",
  "sourceName": "contracts/DAppStore.sol",
  "abi": [
    {
      "inputs": [
        {
          "internalType": "address",
          "name": "_nftAddress",
          "type": "address"
        }
      ],
      "stateMutability": "nonpayable",
      "type": "constructor"
    },
    {
      "inputs": [
        {
          "internalType": "address",
          "name": "owner",
          "type": "address"
        }
      ],
      "name": "OwnableInvalidOwner",
      "type": "error"
    },
    {
      "inputs": [
        {
          "internalType": "address",
          "name": "account",
          "type": "address"
        }
      ],
      "name": "OwnableUnauthorizedAccount",
      "type": "error"
    },
    {
      "anonymous": false,
      "inputs": [
        {
          "indexed": true,
          "internalType": "uint256",
          "name": "id",
          "type": "uint256"
        },
        {
          "indexed": true,
          "internalType": "address",
          "name": "developer",
          "type": "address"
        },
        {
          "indexed": false,
          "internalType": "uint256",
          "name": "price",
          "type": "uint256"
        },
        {
          "indexed": false,
          "internalType": "string",
          "name": "name",
          "type": "string"
        }
      ],
      "name": "DAppPublished",
      "type": "event"
    },
    {
      "anonymous": false,
      "inputs": [
        {
          "indexed": true,
          "internalType": "uint256",
          "name": "id",
          "type": "uint256"
        },
        {
          "indexed": true,
          "internalType": "address",
          "name": "buyer",
          "type": "address"
        },
        {
          "indexed": false,
          "internalType": "uint256",
          "name": "price",
          "type": "uint256"
        }
      ],
      "name": "DAppPurchased",
      "type": "event"
    },
    {
      "anonymous": false,
      "inputs": [
        {
          "indexed": true,
          "internalType": "address",
          "name": "previousOwner",
          "type": "address"
        },
        {
          "indexed": true,
          "internalType": "address",
          "name": "newOwner",
          "type": "address"
        }
      ],
      "name": "OwnershipTransferred",
      "type": "event"
    },
    {
      "inputs": [
        {
          "internalType": "uint256",
          "name": "id",
          "type": "uint256"
        }
      ],
      "name": "buyDApp",
      "outputs": [],
      "stateMutability": "payable",
      "type": "function"
    },
    {
      "inputs": [],
      "name": "dappCount",
      "outputs": [
        {
          "internalType": "uint256",
          "name": "",
          "type": "uint256"
        }
      ],
      "stateMutability": "view",
      "type": "function"
    },
    {
      "inputs": [
        {
          "internalType": "uint256",
          "name": "",
          "type": "uint256"
        }
      ],
      "name": "dapps",
      "outputs": [
        {
          "internalType": "uint256",
          "name": "id",
          "type": "uint256"
        },
        {
          "internalType": "address payable",
          "name": "developer",
          "type": "address"
        },
        {
          "internalType": "uint256",
          "name": "price",
          "type": "uint256"
        },
        {
          "internalType": "string",
          "name": "metadataURI",
          "type": "string"
        },
        {
          "internalType": "bool",
          "name": "isPublished",
          "type": "bool"
        },
        {
          "internalType": "string",
          "name": "name",
          "type": "string"
        },
        {
          "internalType": "string",
          "name": "category",
          "type": "string"
        }
      ],
      "stateMutability": "view",
      "type": "function"
    },
    {
      "inputs": [],
      "name": "getAllDApps",
      "outputs": [
        {
          "components": [
            {
              "internalType": "uint256",
              "name": "id",
              "type": "uint256"
            },
            {
              "internalType": "address payable",
              "name": "developer",
              "type": "address"
            },
            {
              "internalType": "uint256",
              "name": "price",
              "type": "uint256"
            },
            {
              "internalType": "string",
              "name": "metadataURI",
              "type": "string"
            },
            {
              "internalType": "bool",
              "name": "isPublished",
              "type": "bool"
            },
            {
              "internalType": "string",
              "name": "name",
              "type": "string"
            },
            {
              "internalType": "string",
              "name": "category",
              "type": "string"
            }
          ],
          "internalType": "struct DAppStore.DApp[]",
          "name": "",
          "type": "tuple[]"
        }
      ],
      "stateMutability": "view",
      "type": "function"
    },
    {
      "inputs": [],
      "name": "nftContract",
      "outputs": [
        {
          "internalType": "contract DAppNFT",
          "name": "",
          "type": "address"
        }
      ],
      "stateMutability": "view",
      "type": "function"
    },
    {
      "inputs": [],
      "name": "owner",
      "outputs": [
        {
          "internalType": "address",
          "name": "",
          "type": "address"
        }
      ],
      "stateMutability": "view",
      "type": "function"
    },
    {
      "inputs": [
        {
          "internalType": "string",
          "name": "name",
          "type": "string"
        },
        {
          "internalType": "string",
          "name": "category",
          "type": "string"
        },
        {
          "internalType": "uint256",
          "name": "price",
          "type": "uint256"
        },
        {
          "internalType": "string",
          "name": "metadataURI",
          "type": "string"
        }
      ],
      "name": "publishDApp",
      "outputs": [],
      "stateMutability": "nonpayable",
      "type": "function"
    },
    {
      "inputs": [],
      "name": "renounceOwnership",
      "outputs": [],
      "stateMutability": "nonpayable",
      "type": "function"
    },
    {
      "inputs": [
        {
          "internalType": "address",
          "name": "newOwner",
          "type": "address"
        }
      ],
      "name": "transferOwnership",
      "outputs": [],
      "stateMutability": "nonpayable",
      "type": "function"
    }
  ],
  "bytecode": "0x608060405234801561000f575f80fd5b506040516110a43803806110a483398101604081905261002e916100d1565b338061005357604051631e4fbdf760e01b81525f600482015260240160405180910390fd5b61005c81610082565b50600180546001600160a01b0319166001600160a01b03929092169190911790556100fe565b5f80546001600160a01b038381166001600160a01b0319831681178455604051919092169283917f8be0079c531659141344cd1fd0a4f28419497f9722a3daafe3b4186f6b6457e09190a35050565b5f602082840312156100e1575f80fd5b81516001600160a01b03811681146100f7575f80fd5b9392505050565b610f998061010b5f395ff3fe608060405260043610610084575f3560e01c80638da5cb5b116100575780638da5cb5b146100fa5780639640fe351461012a5780639e2c09ea1461015c578063d56d229d1461017b578063f2fde38b1461019a575f80fd5b8063162b602e14610088578063428053441461009d57806358654e32146100c5578063715018a6146100e6575b5f80fd5b61009b610096366004610a08565b6101b9565b005b3480156100a8575f80fd5b506100b260035481565b6040519081526020015b60405180910390f35b3480156100d0575f80fd5b506100d9610345565b6040516100bc9190610a62565b3480156100f1575f80fd5b5061009b610631565b348015610105575f80fd5b505f546001600160a01b03165b6040516001600160a01b0390911681526020016100bc565b348015610135575f80fd5b50610149610144366004610a08565b610644565b6040516100bc9796959493929190610b3d565b348015610167575f80fd5b5061009b610176366004610c42565b610824565b348015610186575f80fd5b50600154610112906001600160a01b031681565b3480156101a5575f80fd5b5061009b6101b4366004610cce565b610950565b5f818152600260205260409020600481015460ff166102105760405162461bcd60e51b815260206004820152600e60248201526d11105c1c081b9bdd08199bdd5b9960921b60448201526064015b60405180910390fd5b806002015434101561025b5760405162461bcd60e51b8152602060048201526014602482015273125b9cdd59999a58da595b9d081c185e5b595b9d60621b6044820152606401610207565b60018101546040516001600160a01b03909116903480156108fc02915f818181858888f19350505050158015610293573d5f803e3d5ffd5b5060015460405163d0def52160e01b81526001600160a01b039091169063d0def521906102c99033906003860190600401610d2d565b6020604051808303815f875af11580156102e5573d5f803e3d5ffd5b505050506040513d601f19601f820116820180604052508101906103099190610dc7565b50604051348152339083907f2b7a9861bac28624edc4e6b748d80197e276c74c0cb9134e942d802042a3fae79060200160405180910390a35050565b60605f60035467ffffffffffffffff81111561036357610363610ba5565b6040519080825280602002602001820160405280156103db57816020015b6103c86040518060e001604052805f81526020015f6001600160a01b031681526020015f8152602001606081526020015f1515815260200160608152602001606081525090565b8152602001906001900390816103815790505b50905060015b600354811161062b575f81815260026020818152604092839020835160e0810185528154815260018201546001600160a01b031692810192909252918201549281019290925260038101805460608401919061043c90610cfb565b80601f016020809104026020016040519081016040528092919081815260200182805461046890610cfb565b80156104b35780601f1061048a576101008083540402835291602001916104b3565b820191905f5260205f20905b81548152906001019060200180831161049657829003601f168201915b5050509183525050600482015460ff16151560208201526005820180546040909201916104df90610cfb565b80601f016020809104026020016040519081016040528092919081815260200182805461050b90610cfb565b80156105565780601f1061052d57610100808354040283529160200191610556565b820191905f5260205f20905b81548152906001019060200180831161053957829003601f168201915b5050505050815260200160068201805461056f90610cfb565b80601f016020809104026020016040519081016040528092919081815260200182805461059b90610cfb565b80156105e65780601f106105bd576101008083540402835291602001916105e6565b820191905f5260205f20905b8154815290600101906020018083116105c957829003601f168201915b505050505081525050826001836105fd9190610df2565b8151811061060d5761060d610e0b565b6020026020010181905250808061062390610e1f565b9150506103e1565b50919050565b61063961098d565b6106425f6109b9565b565b600260208190525f9182526040909120805460018201549282015460038301805492946001600160a01b031693919261067c90610cfb565b80601f01602080910402602001604051908101604052809291908181526020018280546106a890610cfb565b80156106f35780601f106106ca576101008083540402835291602001916106f3565b820191905f5260205f20905b8154815290600101906020018083116106d657829003601f168201915b5050506004840154600585018054949560ff90921694919350915061071790610cfb565b80601f016020809104026020016040519081016040528092919081815260200182805461074390610cfb565b801561078e5780601f106107655761010080835404028352916020019161078e565b820191905f5260205f20905b81548152906001019060200180831161077157829003601f168201915b5050505050908060060180546107a390610cfb565b80601f01602080910402602001604051908101604052809291908181526020018280546107cf90610cfb565b801561081a5780601f106107f15761010080835404028352916020019161081a565b820191905f5260205f20905b8154815290600101906020018083116107fd57829003601f168201915b5050505050905087565b60038054905f61083383610e1f565b90915550506040805160e081018252600380548083523360208085019182528486018881526060860188815260016080880181905260a088018d905260c088018c90525f9586526002938490529790942086518155925196830180546001600160a01b0319166001600160a01b039098169790971790965594519481019490945551919291908201906108c69082610e83565b50608082015160048201805460ff191691151591909117905560a082015160058201906108f39082610e83565b5060c082015160068201906109089082610e83565b50506003546040513392507fb071be3b2853059519dea7a8691347b5c463b9cee082e59d599c9df32cdaf03a906109429086908990610f43565b60405180910390a350505050565b61095861098d565b6001600160a01b03811661098157604051631e4fbdf760e01b81525f6004820152602401610207565b61098a816109b9565b50565b5f546001600160a01b031633146106425760405163118cdaa760e01b8152336004820152602401610207565b5f80546001600160a01b038381166001600160a01b0319831681178455604051919092169283917f8be0079c531659141344cd1fd0a4f28419497f9722a3daafe3b4186f6b6457e09190a35050565b5f60208284031215610a18575f80fd5b5035919050565b5f81518084525f5b81811015610a4357602081850181015186830182015201610a27565b505f602082860101526020601f19601f83011685010191505092915050565b5f60208083018184528085518083526040925060408601915060408160051b8701018488015f5b83811015610b2f57888303603f19018552815180518452878101516001600160a01b031688850152868101518785015260608082015160e08287018190529190610ad583880182610a1f565b925050506080808301511515818701525060a08083015186830382880152610afd8382610a1f565b9250505060c08083015192508582038187015250610b1b8183610a1f565b968901969450505090860190600101610a89565b509098975050505050505050565b87815260018060a01b038716602082015285604082015260e060608201525f610b6960e0830187610a1f565b851515608084015282810360a0840152610b838186610a1f565b905082810360c0840152610b978185610a1f565b9a9950505050505050505050565b634e487b7160e01b5f52604160045260245ffd5b5f82601f830112610bc8575f80fd5b813567ffffffffffffffff80821115610be357610be3610ba5565b604051601f8301601f19908116603f01168101908282118183101715610c0b57610c0b610ba5565b81604052838152866020858801011115610c23575f80fd5b836020870160208301375f602085830101528094505050505092915050565b5f805f8060808587031215610c55575f80fd5b843567ffffffffffffffff80821115610c6c575f80fd5b610c7888838901610bb9565b95506020870135915080821115610c8d575f80fd5b610c9988838901610bb9565b9450604087013593506060870135915080821115610cb5575f80fd5b50610cc287828801610bb9565b91505092959194509250565b5f60208284031215610cde575f80fd5b81356001600160a01b0381168114610cf4575f80fd5b9392505050565b600181811c90821680610d0f57607f821691505b60208210810361062b57634e487b7160e01b5f52602260045260245ffd5b60018060a01b03831681525f6020604060208401525f8454610d4e81610cfb565b806040870152606060018084165f8114610d6f5760018114610d8b57610db8565b60ff19851660608a0152606084151560051b8a01019550610db8565b895f5260205f205f5b85811015610daf5781548b8201860152908301908801610d94565b8a016060019650505b50939998505050505050505050565b5f60208284031215610dd7575f80fd5b5051919050565b634e487b7160e01b5f52601160045260245ffd5b81810381811115610e0557610e05610dde565b92915050565b634e487b7160e01b5f52603260045260245ffd5b5f60018201610e3057610e30610dde565b5060010190565b601f821115610e7e57805f5260205f20601f840160051c81016020851015610e5c5750805b601f840160051c820191505b81811015610e7b575f8155600101610e68565b50505b505050565b815167ffffffffffffffff811115610e9d57610e9d610ba5565b610eb181610eab8454610cfb565b84610e37565b602080601f831160018114610ee4575f8415610ecd5750858301515b5f19600386901b1c1916600185901b178555610f3b565b5f85815260208120601f198616915b82811015610f1257888601518255948401946001909101908401610ef3565b5085821015610f2f57878501515f19600388901b60f8161c191681555b505060018460011b0185555b505050505050565b828152604060208201525f610f5b6040830184610a1f565b94935050505056fea264697066735822122034bee3147fb97d4e18a6079d8f2a33187f31355c7dd834cbcd1a7737a3e63bf264736f6c63430008180033",
  "linkReferences": {},
  "deployedLinkReferences": {}
}